{"abi":[{"type":"constructor","inputs":[],"stateMutability":"payable"},{"type":"fallback","stateMutability":"payable"},{"type":"receive","stateMutability":"payable"},{"type":"function","name":"admin","inputs":[],"outputs":[{"name":"","type":"address","internalType":"address"}],"stateMutability":"view"},{"type":"function","name":"emitCrossChainMessage","inputs":[{"name":"body","type":"bytes","internalType":"bytes"}],"outputs":[],"stateMutability":"nonpayable"},{"type":"function","name":"isSolved","inputs":[],"outputs":[{"name":"","type":"bool","internalType":"bool"}],"stateMutability":"view"},{"type":"function","name":"transferOwnership","inputs":[{"name":"newAdmin","type":"address","internalType":"address"}],"outputs":[],"stateMutability":"nonpayable"},{"type":"function","name":"withdraw","inputs":[],"outputs":[],"stateMutability":"nonpayable"},{"type":"event","name":"FundsWithdrawn","inputs":[{"name":"admin","type":"address","indexed":true,"internalType":"address"},{"name":"amount","type":"uint256","indexed":false,"internalType":"uint256"}],"anonymous":false},{"type":"event","name":"MessageEmitted","inputs":[{"name":"m","type":"tuple","indexed":false,"internalType":"struct Message","components":[{"name":"body","type":"bytes","internalType":"bytes"}]}],"anonymous":false},{"type":"event","name":"OwnershipTransferred","inputs":[{"name":"previousAdmin","type":"address","indexed":true,"internalType":"address"},{"name":"newAdmin","type":"address","indexed":true,"internalType":"address"}],"anonymous":false}],"bytecode":{"object":"0x60806040819052600080546001600160a01b031916339081178255917f8be0079c531659141344cd1fd0a4f28419497f9722a3daafe3b4186f6b6457e0908290a36105018061004f6000396000f3fe60806040526004361061004a5760003560e01c80633ccfd60b1461004c57806364d98f6e1461006157806397fdd0f9146100ac578063f2fde38b146100cc578063f851a440146100ec575b005b34801561005857600080fd5b5061004a610124565b34801561006d57600080fd5b506100976000546001600160a01b031673fbe1c99586903f72d37cff5bcd74494b69d8235f141590565b60405190151581526020015b60405180910390f35b3480156100b857600080fd5b5061004a6100c736600461038b565b610235565b3480156100d857600080fd5b5061004a6100e7366004610444565b61027a565b3480156100f857600080fd5b5060005461010c906001600160a01b031681565b6040516001600160a01b0390911681526020016100a3565b6000546001600160a01b031633146101735760405162461bcd60e51b815260206004820152600d60248201526c2737ba103a34329030b236b4b760991b60448201526064015b60405180910390fd5b47806101b65760405162461bcd60e51b81526020600482015260126024820152714e6f2066756e647320617661696c61626c6560701b604482015260640161016a565b600080546040516001600160a01b039091169183156108fc02918491818181858888f193505050501580156101ef573d6000803e3d6000fd5b506000546040518281526001600160a01b03909116907feaff4b37086828766ad3268786972c0cd24259d4c87a80f9d3963a3c3d999b0d9060200160405180910390a250565b6040805160208101825282815290517f28dd1f19a19627378d65c5200ed717aed45de1bfc83be2461b6f7cfa6533c3c99161026f91610474565b60405180910390a150565b6000546001600160a01b031633146102c45760405162461bcd60e51b815260206004820152600d60248201526c2737ba103a34329030b236b4b760991b604482015260640161016a565b6001600160a01b03811661031a5760405162461bcd60e51b815260206004820181905260248201527f4e65772061646d696e2063616e6e6f74206265207a65726f2061646472657373604482015260640161016a565b600080546040516001600160a01b03808516939216917f8be0079c531659141344cd1fd0a4f28419497f9722a3daafe3b4186f6b6457e091a3600080546001600160a01b0319166001600160a01b0392909216919091179055565b634e487b7160e01b600052604160045260246000fd5b60006020828403121561039d57600080fd5b813567ffffffffffffffff8111156103b457600080fd5b8201601f810184136103c557600080fd5b803567ffffffffffffffff8111156103df576103df610375565b604051601f8201601f19908116603f0116810167ffffffffffffffff8111828210171561040e5761040e610375565b60405281815282820160200186101561042657600080fd5b81602084016020830137600091810160200191909152949350505050565b60006020828403121561045657600080fd5b81356001600160a01b038116811461046d57600080fd5b9392505050565b6020815260008251602080840152805180604085015260005b818110156104aa576020818401810151606087840101520161048d565b506000606082860101526060601f19601f830116850101925050509291505056fea26469706673582212206aa678b5492c0c9afe3670ce452327704d9b547bf818c25c964627b84231bf2564736f6c634300081c0033","linkReferences":{}},"methodIdentifiers":{"admin()":"f851a440","emitCrossChainMessage(bytes)":"97fdd0f9","isSolved()":"64d98f6e","transferOwnership(address)":"f2fde38b","withdraw()":"3ccfd60b"},"id":15}